:1020030010C4EA611A03530069006C00690063009D
:102013006F006E0020004C0061006200730010032B
:1020230055005300420020004100500049000A03BC
:1020330031003200330034000F8001000000000043
:1020430000000000000000000000000C0000000081
:1020530000003C0000003C00003E0000003C00008B
:102063003FFFFFFFFC00001FFFFFFFFC00001FFFFF
:10207300FFFFFC00001FFFFFFFFC00000FFFFFFF3F
:10208300FC00000F81E0F03C00000F81E0F03C0019
:1020930003FFFFFFFFFC0003FFFFFFFFFC0003FF45
:1020A300FFFFFFFC0003FFFFFFFFFC0003FFFFFF39
:1020B300FFFC0003FFFFFFFFFC000107FE781E3C4F
:1020C300000107FE7C1FBC000387FE7F1FC00007C3
:1020D30087FE7F9FF80007C7FE7FDFFE0007E7FE4E
:1020E3003FFFFF0003F7803BFEFF0003FF803FFF3E
:1020F3003F0001FFFF3EFF8E0000FFFF7F7FC20016
:10210300007FFF7F1FC000001FFF7F07C000000F7D
:10211300FF3C038000000000783C800003FFFF7C4D
:102123003F000003FFFF7E3FC00003FFFF7F3FF040
:102133000003FFFF7F9FFE0003FFFF3FFFFF00033E
:10214300FFFF3FFFFF00000F003FFE7F00000FFE79
:102153001DFF1E00000FFE1F7FC200000FFE7FBF8A
:10216300C000000FFE7F9FC000000FFE7F8780002E
:10217300000FFE3E01800000000020000000000070
:10218300000000000000000000000000000000004C
:10219300000000000000000000000000000020001C
:1021A300000000000060000000000000F0000000DC
:1021B300000001F0000000000001F8000000000032
:1021C30001F8000003FFFF80FC000003FFFF807C99
:1021D300000003FFFF807E000003FFFF803E00003E
:1021E30003FFFF803F000003FFFF83DF800000F059
:1021F3000783DF800000F00783CFC00000F0078370
:10220300C7E00000F00783C7E00000F00783C3F0D6
:102213000000F00783C3F80000F00783C1FC00004F
:10222300F00783C0FE0000F00783C07F0000F007C3
:1022330083C07F0000F00783C03F0000F00783C026
:102243007F0000F00783C0FE0000F00783C1FE009B
:1022530000F00783C1FC0000F00783C3F00000F027
:102263000783C7F00000F00783C7E00000F007838F
:10227300CFC00000F00783CFC00000F00783DF80EA
:102283000003FFFF83DF000003FFFF803F00000325
:10229300FFFF807E000003FFFF807E000003FFFF3F
:1022A30080FC000003FFFF80FC000000000000F83A
:1022B300000000000001F8000000000001F0000031
:1022C30000000000F00000000000006000000000BB
:1022D30000002000000000000000000000000000DB
:1022E30000000000000000000000000000000000EB
:1022F30000000000E0000E00000000E3FFFE00000D
:102303000000E7FFFE0003FFFCEFFFFE0003FFFCFE
:10231300EFFFFE0003FFFCEFFFFE0003FFFCEFFFF8
:10232300FE0003FFFCEFCDEE0003FFFCEFEDFE002C
:1023330001C1DCEFEDFE0001C1DCEFFCFE0001CDCD
:10234300FCEEFC7E0001CDFCEEFFFE0001CDFCEEB9
:102353007FEE0001CCFEEE3FEE0001CCFFEE7FEE00
:102363000001CC7FEEFFEE0001CC7FEEFC6E00019E
:10237300CC3FEFEC6E0001CC1FEFEC6E0001CC1CE8
:10238300EFCC6E0001CC1CEE4CEE0001CC1CE60E33
:10239300CE0001CC7FEE4EE00001CCFFEF6FF800E2
:1023A30001CCFFEF7FFE0001CCFFEF7FFE0001CCED
:1023B300FFE77EFE0001CCFFE7FE7E0001CCDCE7F9
:1023C300FE0E0001CCDCE3FE0E0001CCDCE3EE0EDE
:1023D3000001C0DCE3EE0E0001C0DCE3EE7E00038F
:1023E300FFFCE3FEFE0003FFFCE3FEFE0003FFFC35
:1023F300E7FEFE0003FFFCE7FEFE0003FFFCEFBE6B
:10240300FE0003FFFCEF1EE000000000EF0EE00003
:10241300000000E600E000000000E200E000000031
:1024230000000000000000000000000000000000A9
:102433000000000000000000000000000000000099
:10244300000000000000000007FFFFFFFFFE000781
:10245300FFFFFFFFFE0007FFFFFFFFFE0007FFFF79
:10246300FFFFFE0007FFFFFFFFFE0007FFFFFFFF69
:10247300FE000000F003F01E000000F007FE1E0047
:102483000000F03FFFDE000000FFFFFFFE000080C2
:10249300FFFFFFFE000180FFFF3FFE0007C07FFE3E
:1024A30007FE0007C03FF800FE0007E01FE0000042
:1024B3000003F001E07FE00003F801E07FE00001AA
:1024C300FC01E07FE00001FE01E07FE00000FF810E
:1024D300E07FE000007FFFE1E1E000003FFFE1E19A
:1024E300E000001FFFE1E1E0000007FFE1E1E2009F
:1024F3000001FFE1E1FF0000001FE1E1FF00000038
:1025030001E1E1FF00000001E1E1FF00007FFFE1E5
:10251300E1FF0001FFFFE1E1FC0003FFFFE1E1E078
:102523000003FFFFE1E1E00003FFFFE1E1E000035F
:10253300FFFFE1E1E00003C001E1E1E00003C001CE
:10254300E07FE00003FF01E07FE00003FF01E07FA5
:10255300E00003FF01E07FE00001FF01E07FE00016
:1025630000FE01E07FE000003E00000000000000EC
:102573000000000000000000000000000000000058
:102583000000000000000000000000000000000048
:1025930000000000000000000000000000000F80A9
:1025A3000000000000000F800000000000000F800A
:1025B3000000000000000F800000000000000F80FA
:1025C3000000000000000F81FFFFFF8000000F816B
:1025D300FFFFFF8000000F81FFFFFF8000000F81DE
:1025E300FFFFFF8000000F81FFFFFF8000000F81CE
:1025F300FFFFFF8000000F81F03E0F8000000F817E
:10260300F03E0F8000000F81F03E0F8000000F812D
:10261300F03E0F8000000F81F03E0F8000000F811D
:10262300F03E0F8000000F81F03E0F8000000F810D
:10263300F03E0F8000000F81F03E0F8000000F81FD
:10264300F03E0F8000000F81F03E0F8000000F81ED
:10265300F03E0F8001FFFFFFF03E0F8001FFFFFF01
:10266300F03E0F8001FFFFFFF03E0F8001FFFFFFF1
:10267300F03E0F8001FFFFFFF03E0F8001FFFFFFE1
:10268300F03E0F8000000F81F03E0F8000000F81AD
:10269300F03E0F8000000F81F03E0F8000000F819D
:1026A300F03E0F8000000F81F03E0F8000000F818D
:1026B300F03E0F8000000F81F03E0F8000000F817D
:1026C300F03E0F8000000F81F03E0F8000000F816D
:1026D300F03E0F8000000F81F03E0F8000000F815D
:1026E300FFFFFF8000000F81FFFFFF8000000F81CD
:1026F300FFFFFF8000000F81FFFFFF8000000F81BD
:10270300FFFFFF8000000F81FFFFFF8000000F80AD
:102713000000000000000F800000000000000F8098
:102723000000000000000F800000000000000F8088
:102733000000000000000F80000000000000000007
:102743000000000000000000000000000000000086
:102753000000000000000000000000000000000076
:102763000000000000000000000000000000000066
:102773000000000000000000000000000000000056
:102783000000000000000000000000000000000046
:102793000000000000000000000800000000000628
:1027A3000C3C00000000000F1E7E00000000001F14
:1027B3003E7F00000000001F3E3FC0000000001FDE
:1027C300BE0FE0000010000FBF1FF80000F8000F5D
:1027D3009F3FFE0000FFFFFFDFFFFF0000FFFFFF43
:1027E300CFFFFE0000FFFFFFCFFDFE0000FFFFFF56
:1027F300EFF9FE0000FFFFFFE7F1E40000FFFFFF3A
:10280300E7E1FFE000F8739DF3F1FFE00078739DCB
:10281300F3F9FFE0007C739CF9F9FFE0007C739C03
:10282300F8FDFFE0007C739C7CFFFFE0007C739C61
:10283300FE7FEF00007C739CFE3FEF00003C739C27
:10284300FF1FEF00003E739CFF0FEF00003E739CE1
:10285300FF87EF00003E739CEFC3EF00001E739CE5
:10286300EFE1EF00001F739CE7E00F000000739C93
:10287300EFE000000000739CEFE02780000C739CE6
:10288300FFC07780001F739CFFD07F80001F739C65
:10289300FF38FF80001F739CFEF8FF80001F739CAE
:1028A300FEF9FF80001F739CFCFFF780001F739CE1
:1028B300FCFFF780003E739CF87FE780003E739D2A
:1028C300F87FC780003E739DF03FC780003E7FFFC7
:1028D300F03F8780007E7FFFE03F8780007F7FFFA0
:1028E300E03FC780007FFFFFC07FE780007FFFFFDF
:1028F300C0FFF78000FFFFFFC1FFFF8000FFC00F95
:1029030083FBFF8000FBC00F87F0FF8001F9801F6E
:1029130087E07F8001F8801F07C03F8001F0001F20
:1029230003800F8001F0001F0100000000F0000F82
:10293300000000000020000600000000000000006E
:102943000000000000000000000000000000000084
:102953000000000000000000000000000000000074
:102963000000000000000000000000000000000064
:102973000000000000000000000000000000000054
:102983000000000000000000000000000000000044
:10299300000000000000000000070000000000002D
:1029A300003F000000380000003F800000FFFFFFF1
:1029B300FFFFC00001FFFFFFFFDFE00001FFFFFF9C
:1029C300FFCFF00000FFFFFFFFCFF80000FFFFFF86
:1029D300FFCFFC0000FFFFFFFFCFFE00007F00F1F1
:1029E300E3CFFF00007F00F1E3CFFFC0003F00F122
:1029F300E3CF7FE0003F80F1E3CF1FE0001F8CF1C6
:102A0300E3CF0FE0000FFCF1E3CF1FE0000FFCF179
:102A1300E3CF3FC00007FEF1E3CF7FC00007FEFF17
:102A2300FFCFFF00001FFCFFFFCFFE00001FF8FFDA
:102A3300FFC1FC00000FE0FFFFC3FC0000FF80FFAD
:102A4300FFC7F80000FE00FFFFC7F00001FF800092
:102A53000001E00001FFFC000000C00003FFFFFFD6
:102A6300FFFFFF8000FFFFFFFFFFFF80003FFFFF2F
:102A7300FFFFFF800027FFFFFFFFFF800070FFFFC6
:102A8300FFFFFF8000F803FFFFFFFF8001F8000056
:102A930001F00F8001FC0003FFF00F8000FE003FF8
:102AA300FFF00F8000FF01FFFFF00F80007F87FF23
:102AB300FFF00F80003FDFFFFFF00F80001FFFFFDD
:102AC300E1F00F80000FFFF801F00F800007FFC057
:102AD30001F00F800003FF0001F00F800007FF806B
:102AE30001F00F80000FFFF001F00F80001FFFFEC9
:102AF30001F00F80003FDFFFF1F00F80007F87FFC1
:102B0300FFF00F80007F01FFFFF00F8000FE007FCA
:102B1300FFF00F8001FC000FFFF00F8001FC0000AD
:102B2300FFF00F8001F8000003F00F800070000039
:102B330000000F80003000000000000000000000D3
:102B43000000000000000000000000000000000082
:102B53000000000000000000000000000000000072
:102B63000000000000000000000000000000000062
:102B73000000000000000000000000000000000052
:102B83000000000000000000000000000000000042
:102B9300000000000000000000000000000000072B
:102BA300C0C0000000000007C1E0000000000007F3
:102BB300C3F0000000000007C7F800000000000792
:102BC300C7FC000000000007C3FE00000000000770
:102BD300C1FF000000000007C0FF800000000007E5
:102BE300C07FE00000000007C01FF00000000007E6
:102BF300C00FF80000000007C007FE000000000738
:102C0300C003FF0000000007C001FFC00000000771
:102C1300C001FFE000000007C001FFE00000000763
:102C2300C001FFE000000007C001F7C0000000077B
:102C3300C001F1C000000007C001F08000000007E0
:102C4300C001F00000000007C001F0000000000711
:102C5300C001F00001FFFFFFFFFFF00001FFFFFFD6
:102C6300FFFFF00001FFFFFFFFFFF00001FFFFFF89
:102C7300FFFFF00001FFFFFFFFFFF00001FFFFFF79
:102C8300FFFFF00000000007C001F0000000000794
:102C9300C001F00000000007C001F00000000007C1
:102CA300C001F00000000007C001F00000000007B1
:102CB300C001F00000000007C001F00000000007A1
:102CC300C001F00000000007C001F0000000000791
:102CD300C001F00000000007C001F0000000000781
:102CE300C001F00000000007C001F0000000000771
:102CF300C001F00000000007C001F0000000000761
:102D0300C001F00000000007C001F0000000000750
:102D1300C001F00000000007C001F0000000000740
:102D2300C001F00000000007C00000000000000721
:102D3300C000000000000007C00000000000000009
:102D43000000000000000000000000000000000080
:102D53000000000000000000000000000000000070
:102D63000000000000000000000000000000000060
:102D73000000000000000000000000000000000050
:102D83000000000000000000000000000000000040
:102D93000000000000000000000800000000000622
:102DA3000C3C00000000000F1E7E00000000001F0E
:102DB3003E7F00000000001F3E3FC0000000001FD8
:102DC300BE0FE0000010000FBF1FF80000F8000F57
:102DD3009F3FFE0000FFFFFFDFFFFF0000FFFFFF3D
:102DE300CFFFFE0000FFFFFFCFFDFE0000FFFFFF50
:102DF300EFF9FE0000FFFFFFE7F1E40000FFFFFF34
:102E0300E7E1FFE000F8739DF3F1FFE00078739DC5
:102E1300F3F9FFE0007C739CF9F9FFE0007C739CFD
:102E2300F8FDFFE0007C739C7CFFFFE0007C739C5B
:102E3300FE7FEF00007C739CFE3FEF00003C739C21
:102E4300FF1FEF00003E739CFF0FEF00003E739CDB
:102E5300FF87EF00003E739CEFC3EF00001E739CDF
:102E6300EFE1EF00001F739CE7E00F000000739C8D
:102E7300EFE000000000739CEFE02780000C739CE0
:102E8300FFC07780001F739CFFD07F80001F739C5F
:102E9300FF38FF80001F739CFEF8FF80001F739CA8
:102EA300FEF9FF80001F739CFCFFF780001F739CDB
:102EB300FCFFF780003E739CF87FE780003E739D24
:102EC300F87FC780003E739DF03FC780003E7FFFC1
:102ED300F03F8780007E7FFFE03F8780007F7FFF9A
:102EE300E03FC780007FFFFFC07FE780007FFFFFD9
:102EF300C0FFF78000FFFFFFC1FFFF8000FFC00F8F
:102F030083FBFF8000FBC00F87F0FF8001F9801F68
:102F130087E07F8001F8801F07C03F8001F0001F1A
:102F230003800F8001F0001F0100000000F0000F7C
:102F33000000000000200006000000000000000068
:102F4300000000000000000000000000000000007E
:102F5300000000000000000000000000000000006E
:102F6300000000000000000000000000000000005E
:102F7300000000000000000000000000000000004E
:102F8300000000000000000000000000000000003E
:102F93000000000000000000000700000000000027
:102FA300003F000000380000003F800000FFFFFFEB
:102FB300FFFFC00001FFFFFFFFDFE00001FFFFFF96
:102FC300FFCFF00000FFFFFFFFCFF80000FFFFFF80
:102FD300FFCFFC0000FFFFFFFFCFFE00007F00F1EB
:102FE300E3CFFF00007F00F1E3CFFFC0003F00F11C
:102FF300E3CF7FE0003F80F1E3CF1FE0001F8CF1C0
:10300300E3CF0FE0000FFCF1E3CF1FE0000FFCF173
:10301300E3CF3FC00007FEF1E3CF7FC00007FEFF11
:10302300FFCFFF00001FFCFFFFCFFE00001FF8FFD4
:10303300FFC1FC00000FE0FFFFC3FC0000FF80FFA7
:10304300FFC7F80000FE00FFFFC7F00001FF80008C
:103053000001E00001FFFC000000C00003FFFFFFD0
:10306300FFFFFF8000FFFFFFFFFFFF80003FFFFF29
:10307300FFFFFF800027FFFFFFFFFF800070FFFFC0
:10308300FFFFFF8000F803FFFFFFFF8001F8000050
:1030930001F00F8001FC0003FFF00F8000FE003FF2
:1030A300FFF00F8000FF01FFFFF00F80007F87FF1D
:1030B300FFF00F80003FDFFFFFF00F80001FFFFFD7
:1030C300E1F00F80000FFFF801F00F800007FFC051
:1030D30001F00F800003FF0001F00F800007FF8065
:1030E30001F00F80000FFFF001F00F80001FFFFEC3
:1030F30001F00F80003FDFFFF1F00F80007F87FFBB
:10310300FFF00F80007F01FFFFF00F8000FE007FC4
:10311300FFF00F8001FC000FFFF00F8001FC0000A7
:10312300FFF00F8001F8000003F00F800070000033
:1031330000000F80003000000000000000000000CD
:10314300000000000000000000000000000000007C
:10315300000000000000000000000000000000006C
:10316300000000000000000000000000000000005C
:10317300000000000000000000000000000000004C
:10318300000000000000000000000000000000003C
:10319300000000000000000000000000000000002C
:1031A30000000000003FFFFFFFFFFE00003FFFFFA6
:1031B300FFFFFE00003FFFFFFFFFFE00003FFFFF9A
:1031C300FFFFFE00003FFFFFFFFFFE00003FFFFF8A
:1031D300FFFFFE000003E000F8003E000003E000F4
:1031E300F8003E000003E000F8003E000003E000AA
:1031F300F8003E00000FFFFFFFFFFE00000FFFFF80
:10320300FFFFFE00000FFFFFFFFFFE00000FFFFFA9
:10321300FFFFFE00000FFFFFFFFFFE0000000000A6
:1032230000100000007000000078000000F00000B3
:1032330001FC000001F8000001FC000001F8001F80
:10324300FFFE000001FC001FFFFF000000FE001F47
:10325300FFFFC00000FF001FFFFFE000007F001F13
:10326300FFFFF000003F801FFFFFFC00001FE01F77
:1032730001F7FE00001FF01F01F3FF80000FF81F8E
:1032830001F1FFE00007FE1F01F0FFE00003FF9FD5
:1032930001F07FE00000FFFF01F07FE000007FFF0F
:1032A300FFF07FE000003FFFFFF07DC000000FFF55
:1032B300FFF87C00000003FFFFFC7C00003FFFFFE2
:1032C300FFFE7C00007FFFFFFFFF7C0000FFFFFF8E
:1032D30001FFFC0000FFFFFF01FFFC0000FFFFFFF9
:1032E30001FFFC0000FFFFFF01F7FC0000F8001FD7
:1032F30001F3FC0000F8001F01F1FC0000F8001FBF
:10330300FFF0FC0000FC001FFFF0000000FFF81FAF
:10331300FFF0000000FFF81FFFF0000000FFF81FA0
:10332300FFF00000007FF01FFFF00000003FF000FF
:1033330000000000000FF00000000000000000008B
:10334300000000000000000000000000000000007A
:10335300000000000000000000000000000000006A
:10336300000000000000000000000000000000005A
:10337300000000000000000000000000000000004A
:10338300000000000000000000000000000000003A
:10339300000000000000000000080000000000061C
:1033A3000C3C00000000000F1E7E00000000001F08
:1033B3003E7F00000000001F3E3FC0000000001FD2
:1033C300BE0FE0000010000FBF1FF80000F8000F51
:1033D3009F3FFE0000FFFFFFDFFFFF0000FFFFFF37
:1033E300CFFFFE0000FFFFFFCFFDFE0000FFFFFF4A
:1033F300EFF9FE0000FFFFFFE7F1E40000FFFFFF2E
:10340300E7E1FFE000F8739DF3F1FFE00078739DBF
:10341300F3F9FFE0007C739CF9F9FFE0007C739CF7
:10342300F8FDFFE0007C739C7CFFFFE0007C739C55
:10343300FE7FEF00007C739CFE3FEF00003C739C1B
:10344300FF1FEF00003E739CFF0FEF00003E739CD5
:10345300FF87EF00003E739CEFC3EF00001E739CD9
:10346300EFE1EF00001F739CE7E00F000000739C87
:10347300EFE000000000739CEFE02780000C739CDA
:10348300FFC07780001F739CFFD07F80001F739C59
:10349300FF38FF80001F739CFEF8FF80001F739CA2
:1034A300FEF9FF80001F739CFCFFF780001F739CD5
:1034B300FCFFF780003E739CF87FE780003E739D1E
:1034C300F87FC780003E739DF03FC780003E7FFFBB
:1034D300F03F8780007E7FFFE03F8780007F7FFF94
:1034E300E03FC780007FFFFFC07FE780007FFFFFD3
:1034F300C0FFF78000FFFFFFC1FFFF8000FFC00F89
:1035030083FBFF8000FBC00F87F0FF8001F9801F62
:1035130087E07F8001F8801F07C03F8001F0001F14
:1035230003800F8001F0001F0100000000F0000F76
:103533000000000000200006000000000000000062
:103543000000000000000000000000000000000078
:103553000000000000000000000000000000000068
:103563000000000000000000000000000000000058
:103573000000000000000000000000000000000048
:103583000000000000000000000000000000000038
:103593000000000000000000000700000000000021
:1035A300003F000000380000003F800000FFFFFFE5
:1035B300FFFFC00001FFFFFFFFDFE00001FFFFFF90
:1035C300FFCFF00000FFFFFFFFCFF80000FFFFFF7A
:1035D300FFCFFC0000FFFFFFFFCFFE00007F00F1E5
:1035E300E3CFFF00007F00F1E3CFFFC0003F00F116
:1035F300E3CF7FE0003F80F1E3CF1FE0001F8CF1BA
:10360300E3CF0FE0000FFCF1E3CF1FE0000FFCF16D
:10361300E3CF3FC00007FEF1E3CF7FC00007FEFF0B
:10362300FFCFFF00001FFCFFFFCFFE00001FF8FFCE
:10363300FFC1FC00000FE0FFFFC3FC0000FF80FFA1
:10364300FFC7F80000FE00FFFFC7F00001FF800086
:103653000001E00001FFFC000000C00003FFFFFFCA
:10366300FFFFFF8000FFFFFFFFFFFF80003FFFFF23
:10367300FFFFFF800027FFFFFFFFFF800070FFFFBA
:10368300FFFFFF8000F803FFFFFFFF8001F800004A
:1036930001F00F8001FC0003FFF00F8000FE003FEC
:1036A300FFF00F8000FF01FFFFF00F80007F87FF17
:1036B300FFF00F80003FDFFFFFF00F80001FFFFFD1
:1036C300E1F00F80000FFFF801F00F800007FFC04B
:1036D30001F00F800003FF0001F00F800007FF805F
:1036E30001F00F80000FFFF001F00F80001FFFFEBD
:1036F30001F00F80003FDFFFF1F00F80007F87FFB5
:10370300FFF00F80007F01FFFFF00F8000FE007FBE
:10371300FFF00F8001FC000FFFF00F8001FC0000A1
:10372300FFF00F8001F8000003F00F80007000002D
:1037330000000F80003000000000000000000000C7
:103743000000000000000000000000000000000076
:103753000000000000000000000000000000000066
:103763000000000000000000000000000000000056
:103773000000000000000000000000000000000046
:103783000000000000000000000000000000000036
:1037930000000000000000000000000000600000C6
:1037A3000001F00000F800000001F00000FE00003E
:1037B3000001F00001FFC0000001F00001FFFF0065
:1037C3000001F00000FFFFFFFFE1F000003FFFFFFB
:1037D300FFE1F000001FFFFFFFE1F0000003FFFF28
:1037E300FFE1F08000007FFFFFE1F08000001F0792
:1037F300C3E1F1C000001F07C3E1F1C000101F07C0
:10380300C3E1F3E000F01F07C3E1F3E001F01F079A
:10381300C3E1F3E001F01F07C3E1F7E001F01F0785
:10382300C3E1F7C001F01F07C3E1F7C001F01F07B1
:10383300C3E1F7C001F81F07C3E1F38001FFFFFFF6
:10384300FFE1F38001FFFFFFFFE1F10001FFFFFF55
:10385300FFE1F00000FFFFFFFFE1F00000FFFFFFCB
:10386300FFE1F000003FFFFFFFE1F0000000000078
:103873000001F000000000000001F0000000000063
:103883000001F000000000000001F1000000000052
:103893000001F30000007FFFFFC1F38000007FFF02
:1038A300FFC1F78000007FFFFFC1F7C000707FFFFB
:1038B300FFC1F7C001F07FFFFFC1F7E001F07FFF19
:1038C300FFC1F7E001F000000001F3E001F00000A8
:1038D3000001F3E001F000000001F1C001F000007D
:1038E3000001F1C001F000000001F0C001FFFFFF83
:1038F300FFF1F08001FFFFFFFFF1F00001FFFFFF89
:10390300FFF1F00000FFFFFFFFF1F00000FFFFFFFA
:10391300FFF1F000003FFFFFFFF1F00000000000A7
:103923000001F000000000000001F00000000000B2
:103933000001F000000000000001F00000000000A2
:103943000000000000000000000000000000000074
:103953000000000000000000000000000000000064
:103963000000000000000000000000000000000054
:103973000000000000000000000000000000000044
:103983000000000000000000000000000000000034
:103993000000000000000002000000000000000F13
:1039A300000380000000003F800FC0000000003FC4
:1039B300C01FC0000000001FE01FE0000000000F58
:1039C300F00FF0000000000FF807F80001FFFFFF01
:1039D300FC03FC0001FFFFFFFE01FF0001FFFFFFEF
:1039E300FF80FF8001FFFFFFFFC07FC001FFFFFFDC
:1039F300FFF03FE001FFFFFFFFF81FE000000000C2
:103A03000FFE0FC00030080003FE03C000F81C00C7
:103A130001FE018001F83C00007C000001F87E00FB
:103A23003C3C000001F87F187C08000001F83FFCD3
:103A33007C1E000000FC1FFE7E3F000000FC0FFE0A
:103A43007E3F800000FC0FFE7E3F800000FC07F8F5
:103A53007F3FC000007E0FFC7F3FE000007E3FFE03
:103A63007FBFF000007E7FFFFFBFF800003FFFFF36
:103A7300FFFFFC00003FFEFFFBFFFE00003FFCFFDB
:103A8300FFFFFF00001FF8FFFDFF7F80001FF0FB1B
:103A9300FDFF3FC0001FE0F8FCFF1FE0000FE0F850
:103AA3007CFF0FE0001FE0F87C7F07E0001FF0F8C9
:103AB3007C7F03C0001FF0F87C3F01C0003FF8F893
:103AC3007C3F8080003FFCF87C1FC000007FFEF835
:103AD3007C0FC000007EFFF87D87E000007E7FF84A
:103AE3007FC7F000007E3FF87FC3F80000FC1FF89B
:103AF3007FE1FC0000FC0FF87FE0FC0000FC07F80E
:103B03007FC0FC0000FC03F8FF80780001F801F996
:103B1300FF00380001F80001FE00100001F8000169
:103B2300FC00000001F80000F800000001F80000AC
:103B3300E000000000300000400000000000000032
:103B43000000000000000000000000000000000072
:103B53000000000000000000000000000000000062
:103B63000000000000000000000000000000000052
:103B73000000000000000000000000000000000042
:103B83000000000000000000000000000003C0006F
:103B93000003C0000003E0000003F0000007E000A2
:103BA3000003F8000007E0000003FE000007E00048
:103BB3000001FE000007C0001800FF000007C0005E
:103BC30018003F80000780001C001F800007800052
:103BD3001C000F80000780001E0007800007000004
:103BE3001E000380000780001F000780000780007D
:103BF3003F8007800007C0003FC00F800003C00064
:103C03007FE01F800003E000FFF87F800001F801E0
:103C1300FFFFFF800001FE07FFFFFF800000FFFFA3
:103C2300FEFFFF000000FFFFFC7FFE0000007FFFA0
:103C3300F83FFC0000001FFFF80FF80000000FFF23
:103C4300E0000000000003FF80000000000000000F
:103C53000000000000000000000000000000000061
:103C63000000000000000000000000000000000051
:103C73000000000000000000000000000000000041
:103C8300300000000000007FFFF80000000003FF89
:103C9300FFFF000000001FFFFFFFE00000003FFFE9
:103CA300FFFFF0000000FFFFFFFFFC000001FFFF2C
:103CB300FFFFFE000003FFFFFFFFFF000003FFE025
:103CC300001FFF000007FE000001FF800007F00057
:103CD30000003F800007C00000000F800007800045
:103CE30000000780000700000000038000070000B9
:103CF300000003800007000000000380000780002D
:103D0300000007800007C00000000F800007F000DC
:103D130000003F800007FE000001FF800003FFE07A
:103D2300001FFF000003FFFFFFFFFF000001FFFF75
:103D3300FFFFFE000000FFFFFFFFFC0000007FFF0E
:103D4300FFFFF80000001FFFFFFFE000000007FF78
:103D5300FFFF80000000007FFFF80000000000006C
:103D6300FC00000000000000000000000000000054
:103D73000000000000000000000000000000000040
:103D83000000000000000000000000000000000030
:103D93000000000000000000080000000000000018
:103DA3001C000000000000003E0000000060000056
:103DB3007E00000000F000007F00000001F0000022
:103DC3003F80000001F800003FC0000001FC00003C
:103DD3001FE0000000FC00000FF0000000FE0000E8
:103DE30007FC0000007F0000FBFE0000007F800056
:103DF300F9FF0000003FC000F8FFC000001FE00013
:103E0300F83FE000000FF000F81FF800000FF80083
:103E1300F80FFE000007FE00F807FF800003FF8095
:103E2300F801FFE00000FFE0F8007FE000007FFF03
:103E3300F8003FE000003FFFF8000FC000000FFF55
:103E4300F80003C0000007FFF8000000000000FFB7
:103E5300F80000000000003FF80000000018000117
:103E6300F800000000F80000F800000001F800006E
:103E7300F800000001F80000F800000001F0000065
:103E8300F80007C001F00000F80007C001F00000CF
:103E9300F80007C001F00000F80007C001F00000BF
:103EA300F80007C001F00000F8000FC001F800009F
:103EB300F8003FC001FE0000F800FFC001FFFFC093
:103EC300F803FFC001FFFFFFF80FFFC000FFFFFF74
:103ED300F81FFE00007FFFFFF83FF800003FFFFFE1
:103EE300F8FFC0000003FFFFF9FF8000000001FF9F
:103EF300FBFE00000000000007FC000000000000C3
:103F03000FF00000000000001FE0000000000000B0
:103F13003FC00000000000007F80000000000000A0
:103F23007F000000000000003E00000000000000D1
:103F33001C0000000000000008000000000000005A
:103F4300000000000000000000000000000000006E
:103F5300000000000000000000000000000000005E
:103F6300000000000000000000000000000000004E
:103F7300000000000000000000000000000000003E
:103F8300000000000000000000000000000000002E
:103F9300000000000000000000000000000000001E
:103FA30000000000000000000000300000030000DB
:103FB3000000380000030000000038000003000088
:103FC30000003C000003000000001C000003800010
:103FD30000001E000003F00000007E000003FFFF4E
:103FE300FFFFFF000003FFFFFFFFFF000003FFFFD2
:103FF300FFFFFF800003FFFFFFFFFF800003FFFFC2
:10400300FFFFFF800003FFFFFFFFFF800003C000EF
:104013000000000000038000000000000003000017
:104023000000000000030000000000000003000087
:10403300000000000003000000000000000000007A
:10404300000000000000000000000000000000006D
:10405300000000000000000000000000000000005D
:10406300000000000000000000000000000000004D
:104073000000000000000000000000000000080035
:104083000000000000001C000000000000003F00D2
:104093000000000000003FC00000000000007FF0AF
:1040A3000000000000007FFC0000000000001FFF74
:1040B3008000000000000FFFF0000000000003FF7D
:1040C300FE000000000000FFFFC000000000003FF2
:1040D300FFFC000000000007FFFE000000000001DD
:1040E300FFFE0000000000003FFE00000000000093
:1040F30007FC000000180000007C000000F800002E
:104103000000000001F000000000000001F00000CA
:104113000000000001F000000000000001F00000BA
:104123000000000001F000000000000001F00000AA
:104133000000000001F000000000000001FFFFFF8D
:10414300FFFFFFC001FFFFFFFFFFFFC001FFFFFFF6
:10415300FFFFFFC001FFFFFFFFFFFFC000FFFFFFE7
:10416300FFFFFFC0007FFFFFFFFFFFC0000FFFFF48
:10417300FFFFFFC00000000000000000000000007F
:10418300000000000000000000000000000000002C
:10419300000000000000000000000000000000001C
:1041A300000000000000000000000000000000000C
:1041B300001C00000000000000FC000000000000E4
:1041C30003FE0000000000001FFE000000000000CE
:1041D3007FFE000000000003FFFC00000000001F42
:1041E300FFF00000000000FFFFC0000000000FFF11
:1041F300FE00000000007FFFF800000000007FFFCA
:10420300C000000000003FFE0000000000003FF07F
:104213000000000000001F800000000000001C00E0
:10422300000000000000000000000000000000008B
:10423300000000000000000000000000000000007B
:10424300000000000000000000000000000000006B
:10425300000000000000000000000000000000005B
:10426300000000000000000000000000000000004B
:10427300000000000000000000000000000000003B
:10428300000000000000000000000000003FFFFFEE
:10429300FFFFFE00003FFFFFFFFFFE00003FFFFFA9
:1042A300FFFFFE00003FFFFFFFFFFE00003FFFFF99
:1042B300FFFFFE00003FFFFFFFFFFE000003E001E2
:1042C300F0003E000003E001F0003E000003E001C7
:1042D300F0003E000003E001F0003E00001FFFFF7E
:1042E300FFFFFE00001FFFFFFFFFFE00001FFFFF99
:1042F300FFFFFE00001FFFFFFFFFFE00001FFFFF89
:10430300FFFFFE00001FFFFFFFFFFE000000000095
:104313000000000000000000000000000000003E5C
:104323000000F8000000003E0000F8000000003E1E
:1043330007C0F80000000C3E07C0F80000001E3E56
:1043430007C0F80000003F3E07C0F80000007F3EB2
:1043530007C0F8000000FF3E07C0F8000003FE3E60
:1043630007C0F8000007FC3E07C0F8000007F83E4E
:1043730007C0F8000007F03E07C0F8000003E03E66
:1043830007C0F8000031C03E07FFFFC001F1003E47
:1043930007FFFFC001F0003E07FFFFC001F0003E32
:1043A30007FFFFC001F0003E07FFFFC001F0003E22
:1043B30007FFFFC001F0003E07C0F80001F0003E18
:1043C30007C0F80001FFFFFFE7C0F80001FFFFFF90
:1043D300E7C0F80001FFFFFFE7C0F80001FFFFFFA0
:1043E300E7C0F80000FFFFFFE7C0F800007FFFFF12
:1043F300E7C0F8000000003E07C0F8000000003EE0
:1044030007C0F8000000003E07C0F8000000003EAF
:1044130007C0F8000000003E0000F8000000003E66
:104423000000000000000000000000000000000089
:104433000000000000000000000000000000000079
:104443000000000000000000000000000000000069
:104453000000000000000000000000000000000059
:104463000000000000000000000000000000000049
:104473000000000000000000000000000000000039
:10448300000000000000000000000000003FFFFFEC
:10449300FFFFFF00003FFFFFFFFFFF00003FFFFFA5
:1044A300FFFFFF00003FFFFFFFFFFF00003FFFFF95
:1044B300FFFFFF00003FFFFFFFFFFF000003E03EA1
:1044C30001F01F000003E03E01F01F000003E03E87
:1044D30001F01F000003E03E01F01F00001FFFFF7B
:1044E300FFFFFF00001FFFFFFFFFFF00001FFFFF95
:1044F300FFFFFF00001FFFFFFFFFFF00001FFFFF85
:10450300FFFFFF00001FFFFFFFFFFF000000000091
:104513000000000000F80001F03E000000F8000178
:10452300F03E030000F81F01F03E0F0000F81F01EA
:10453300F03E1F0000F81F3FFF3E1F0000F81F3F23
:10454300FF3E1F0000F81F3FFF3E1F8000F81F3F84
:10455300FF3E1F8000F81F3FFF3E1F8000F81F3FF4
:10456300FF3E1F8000F81F01F03E1F8000F81F016F
:10457300F03E1F8000F81F01F03E1F8000F81F006F
:10458300003E1F8000FFFFFFFFFFFF8000FFFFFFD4
:10459300FFFFFF8000FFFFFFFFFFFF8000FFFFFF24
:1045A300FFFFFF8000FFFFFFFFFFFF8000FFFFFF14
:1045B300FFFFFFC000F81F00003E0FC000F81F01FF
:1045C300F03E0FC000F81F01F03E0FC000F81F01BE
:1045D300F03E0FC000F81F3FFF3E0FC000F81F3F23
:1045E300FF3E07E000F81F3FFF3E07E000F81F3FD4
:1045F300FF3E07E000F81F3FFF3E07E000F81F3FC4
:10460300FF3E07E000F81F01F03E07C000F81F015E
:10461300F03E030000F80001F03E000000F8000146
:10462300F03E000000000000000000000000000059
:104633000000000000000000000000000000000077
:104643000000000000000000000000000000000067
:104653000000000000000000000000000000000057
:104663000000000000000000000000000000000047
:104673000000000000000000000000000000000037
:1046830000000000006000000001F00000F80000DE
:104693000001F00000FE00000001F00001FFC00077
:1046A3000001F00001FFFF000001F00000FFFFFF29
:1046B300FFE1F000003FFFFFFFE1F000001FFFFFFD
:1046C300FFE1F0000003FFFFFFE1F08000007FFF48
:1046D300FFE1F08000001F07C3E1F1C000001F07E6
:1046E300C3E1F1C000101F07C3E1F3E000F01F07AF
:1046F300C3E1F3E001F01F07C3E1F3E001F01F079B
:10470300C3E1F7E001F01F07C3E1F7C001F01F07A2
:10471300C3E1F7C001F01F07C3E1F7C001F81F07AA
:10472300C3E1F38001FFFFFFFFE1F38001FFFFFF20
:10473300FFE1F10001FFFFFFFFE1F00000FFFFFFDA
:10474300FFE1F00000FFFFFFFFE1F000003FFFFF8C
:10475300FFE1F000000000000001F0000000000095
:104763000001F000000000000001F0000000000064
:104773000001F100000000000001F30000007FFFD2
:10478300FFC1F38000007FFFFFC1F78000007FFFC0
:10479300FFC1F7C000707FFFFFC1F7C001F07FFFCB
:1047A300FFC1F7E001F07FFFFFC1F7E001F0000078
:1047B3000001F3E001F000000001F3E001F000006C
:1047C3000001F1C001F000000001F1C001F00000A0
:1047D3000001F0C001FFFFFFFFF1F08001FFFFFFC9
:1047E300FFF1F00001FFFFFFFFF1F00000FFFFFF0B
:1047F300FFF1F00000FFFFFFFFF1F000003FFFFFBC
:10480300FFF1F000000000000001F00000000000D4
:104813000001F000000000000001F00000000000B3
:104823000001F00000000000000000000000000094
:104833000000000000000000000000000000000075
:104843000000000000000000000000000000000065
:104853000000000000000000000000000000000055
:104863000000000000000000000000000000000045
:104873000000000000000000000000000000000035
:1048830000003000000000000030000000000000C5
:104893003000000000000030000000000000300085
:1048A3003FFFE0000030007FFFE000003000FFFF2B
:1048B300E000003000FFFFE000003000C0300000E7
:1048C300003000C0300000003000C0300000003075
:1048D30000C0300000003000C0300000003000C0D5
:1048E300300000003000C0300000003000C0300055
:1048F30000003000C0300000003FFCC0300000006A
:104903003FFCC0300000003FFCC0300000003FFC13
:10491300C0300000003000C0300000003000C03064
:104923000000003000C0300000003000C030000044
:10493300003000C0300000003000C0300000003004
:1049430000C0300000003000C0300000003000C064
:10495300300000003000FFFFE000003000FFFFE008
:10496300000030007FFFE0000030003FFFE0000068
:1049730030000000000000300000000000003000A4
:1049830000000000003000000000000000000000F4
:104993000000000000000000000000000000000014
:1049A3000000000000000000000000000000000004
:1049B30000000000000000000000000000000000F4
:1049C30000000000000000000000000000000000E4
:1049D3000000000000000000000001800000000053
:1049E3000001C0000000000001E0000000001E0103
:1049F300F0000000003F80F8000000007FC07C0052
:104A03000000007FC03E00000000F1E01F800000B6
:104A130000E0E007E0000000C06003FC000000C00D
:104A23006001FFE00001C07000FFE0000180300082
:104A3300FFE00001803001C3E00001803003C000CB
:104A430000018030078000000180300F600000010A
:104A530080301E6000000180303E60000001803025
:104A63007C600000018030F8600000018031F0605C
:104A73000000018031E0600000018031C06000006F
:104A830001C0700060000000C0600060000000C052
:104A9300600060000000E0E00060000000F1E00062
:104AA300600000007FC7FFFFF000007FC7FFFFF03B
:104AB30000003F87FFFFF000001E07FFFFF000002C
:104AC30000000000000000000000000000000000E3
:104AD30000000000000000000000000000000000D3
:104AE30000000000000000000000000000000000C3
:104AF30000000000000000000000000000000000B3
:104B030000000000000000000000000000000000A2
:104B13000000000000000000000000000000000092
:104B23000000000000000000000000000000000082
:104B330007FFFFFF0000000FFFFFFF8000001FFFC4
:104B4300FFFFC000001FFFFFFFC0000018000000B0
:104B5300C0000018000000C0000018000000C000E2
:104B63000018000000C0000018000000C00000187A
:104B7300000000C0000018000000C0000018000082
:104B830000C000001FFFFFFFC000001FFFFFFFC0AA
:104B930000000FFFFFFF80000007FFFFFF00000082
:104BA30000003000000000000030000000000000A2
:104BB3003000000000000030000000000000300062
:104BC300000001FFFFFFFFF00001FFFFFFFFF00008
:104BD30001FFFFFFFFF00001FFFFFFFFF0000000F8
:104BE30000000000000000000000000000000000C2
:104BF3000000000000000000000001FFFFFFFFF0C5
:104C03000001FFFFFFFFF00001FFFFFFFFF00001C6
:104C1300FFFFFFFFF00000000000000000000000A5
:104C23000000000000000000000000000000000081
:104C33000000000000000000000000000000000071
:104C43000000000000000000000000000000000061
:104C53000000000000000000000000000000000051
:104C63000000000000000000000000000000000041
:104C73000000000000000000000000000000000031
:104C830007FFFFFF0000000FFFFFFF8000001FFF73
:104C9300FFFFC000001FFFFFFFC000001C0000005B
:104CA300C0000018000000C0000018000000C00091
:104CB3000018000000C0000018000000C000001829
:104CC300000000C0000018000000C0000018000031
:104CD30000C0000018000000C000001C000000C05D
:104CE30000000C000000C000000C000000C0000029
:104CF3000C000000C000000C000000C000000E000B
:104D03000000C000000E000000C00000060000000C
:104D1300C0000007000000000000070000000000C2
:104D2300000300000000000003000000000000007A
:104D33000000000000000000000000000000000070
:104D430000000001FFFFFFFFF00001FFFFFFFFF086
:104D53000001FFFFFFFFF00001FFFFFFFFF0000076
:104D63000000000000000000000000000000000040
:104D73000000000000000000000000000000000030
:104D83000000000000000000000000000000000020
:104D93000000000000000000000000000000000010
:104DA3000000000000000000000000000000000000
:104DB30000000000000000000000000000000000F0
:104DC30000000000C0C00000000000C0C0C0000020
:104DD3000000C0C0C000000000C0C0C00000FC0C48
:104DE300C0C0C00001FE0CC0C0C00001FF0CE0C089
:104DF300C00001FF0C60E0C00001830C60E0C00054
:104E030001830C6060C00001830C7060C0000183EB
:104E13000C7060C00001830C3860C00001830C3843
:104E230070C00001830C1C30C00001830C1E30C015
:104E33000001830C0F30C00001830C0FC1C00001BF
:104E4300830C07FFC00001830C03FFC00001830C28
:104E530001FF800001830C007F000001830C000030
:104E6300000001830C0000000001830C000000001F
:104E730001830C0000000001830C0000000001838B
:104E83000C000000000183FCFFFFF0000183FCFF26
:104E9300FFF0000183F8FFFFF0000181F8FFFFF04E
:104EA3000001800000C0000001800000C00000007D
:104EB300000000C0000000000000C000000000006F
:104EC30000C0000000000000C0000000000000005F
:104ED30000000000000000000000000000000000CF
:104EE30000000000000000000000000000000000BF
:104EF30000000000000000000000000000000000AF
:104F0300000000000000000000000000000000009E
:104F1300000000000000000000000000000000008E
:104F2300000001F8000000003007FE000000003020
:104F33000FFF00000000301FFF80000000303E071D
:104F4300C0000000303801C0000000307000E000F5
:104F53000000307000E000000030600060000000DE
:104F630030600060000000306000600000003060CE
:104F7300006000000030600060000000307000E05E
:104F8300000000307000E0000000303801C0000075
:104F930000303E07C0000000301FFF8000000030DB
:104FA3000FFF000000003007FE000000003001F892
:104FB300000000003000000000000030000000008E
:104FC300000030000000000000300000000000007E
:104FD300300000000001FFF1FFFFF00001FFF1FFCF
:104FE300FFF00001FFE1FFFFF00001FFC1FFFFF051
:104FF300000000001818000000000018180000004E
:10500300000018180000000000181800000000003D
:10501300181800000000001818000000000000002D
:10502300000000000000000000000000000000007D
:10503300000000000000000000000000000000006D
:10504300000000000000000000000000000000005D
:10505300000000000000000000000000000000004D
:10506300000000001800000000000018000000000D
:1050730000001800000000006018006000000060DD
:105083001800600000006018006000000060180055
:1050930060000000601800600000006018006000FD
:1050A300000060180060000000601800600000004D
:1050B30060180060000000601800600000006018C5
:1050C30000600000006018006000000060180060CD
:1050D300000000601800600000006FF8006000002E
:1050E300006FF800600000006FF800600000006FC0
:1050F300F800600000006018006000000060180005
:10510300600000006018006000000060180060008C
:1051130000006018006000000060180060000000DC
:105123006018006000000060180060000000601F4D
:1051330000E00001FFE01FFFE00001FFE01FFFE0D0
:105143000001FFC01BFFC00001FF8018FF800000AB
:10515300000018000000000000180000000000001C
:10516300180000000000001800000000000000000C
:10517300000000000000000000000000000000002C
:10518300000000000000000000000000000000001C
:10519300000000000000000000000000000000000C
:1051A30000000000070000000000000700000000EE
:1051B30000000700000000000007000000000000DE
:1051C300070001C000000E070001C000003F870771
:1051D300E1C000007FC70FF1C000007FC70FF1C01F
:1051E3000000FFE71FF9C00000FFE71FF9C0000040
:1051F300F1E71EF9C00001E0E73C39C00001E0F728
:105203003C3DC00001E0F73C3DC00001C077381DC4
:10521300C00001C077381DC00001C077F81DFC0035
:1052230001C077F81DFC0001C077F81DFC0001C028
:1052330077F81DFC0001C077F81DFC0001C077F86A
:105243001DFC0001C077381DC00001C077381DC0A8
:105253000001E0F73C3DC00001E0F73C3DC0000128
:10526300E0E73C39C00000F1E71EF9C00000FFE7AA
:105273001FF9C00000FFE71FF9C000007FC70FF14F
:10528300C000007FC70FF1C000003F8707E1C000E7
:10529300000E070001C0000000070001C00000006D
:1052A30007000000000000070000000000000700E6
:1052B30000000000000700000000000000000000E4
:1052C30000000000000000000000000000000000DB
:1052D30000000000000000000000000000000000CB
:1052E30000000000000000000000000000000000BB
:1052F30000000000000000000000000000000000AB
:10530300000000200000000000006000000000001A
:1053130000E0007000000000F0007000000000F0EA
:10532300007000000000F8007000000000780070BA
:105333000001FF877C00700001FF873C00700001C3
:10534300FF873E00700001FF871F00700001FF8789
:105353001F80700001FF870FC0700001C38707E043
:10536300700001C38707F0700001C38703F8700062
:1053730001C38701FF700001C38700FFF00001C371
:1053830087007FF00001C387003FF00001C387005F
:105393000FF00001C3870003F00001C38700007012
:1053A3000001C3870000000001C387000000000163
:1053B300C3870000000001C3870000000001C3870A
:1053C3000000000001C3873FFFFC0001C3FF3FFF54
:1053D300FC0001C3FF3FFFFC0001C3FF3FFFFC00D4
:1053E30001C3FF3FFFFC0001C3FF3FFFFC0001C0FF
:1053F30000000000000000000000000000000000AA
:105403000000000000000000000000000000000099
:105413000000000000000000000000000000000089
:105423000000000000000000000000000000000079
:105433000000000000000000000000000000000069
:105443000000000000E0000000000000E000000099
:10545300000000E0000000000000E0000000000089
:1054630000E0000000000000E0000000001FC0E0BA
:10547300FFF800003FE0E0FFF800007FF0E0FFF8F6
:1054830000007FF0E0FFF80000FFF8E0FFF8000005
:10549300FDF8E0FFF80000F078E0E0380001E03CC0
:1054A300E0E0380001E03CE0E0380001E03CE0E00F
:1054B300380001C01CE0E0380001C01CFFE03800E8
:1054C30001C01CFFE0380001C01CFFE0380001C030
:1054D3001CFFE0380001C01CFFE0380001C01CFFC6
:1054E300E0380001C01CE0E0380001E03CE0E038B7
:1054F3000001E03CE0E0380001E03CE0E03800007F
:10550300F078E0E0380000FDF8E0E0380000FFF854
:10551300E0E03800007FF0E0E03800007FF0E0E0FA
:105523003800003FE0E0E03800001FC0E0E0380052
:10553300000000E0000000000000E00000000000A8
:1055430000E0000000000000E0000000000000E0B8
:10555300000000000000E000000000000000000068
:105563000000000000000000000000000000000038
:105573000000000000000000000000000000000028
:105583000000000000000000000000000000000018
:1055930000000000000000000000000003FFC00046
:1055A3000FFFF0001FFFFC003FC1FC003E003E0068
:1055B3003C001E0038000E0038000E003C001E00A8
:1055C3003E003E001FC1FE001FFFFC000FFFF8005E
:1055D30001FFE000000000000000000000000000E8
:1055E30000000000000000000000000000000000B8
:1055F30000000000000000000000000000000000A8
:105603000000000000000000000000000000000097
:105613000000000000000000000000000000000087
:1056230038003C0038003C0038001C0038001C00E7
:1056330038001E003FFFFE003FFFFE003FFFFF005C
:105643003800000038000000380000003800000077
:10565300380000000000000000000000000000000F
:105663000000000000000000000000000000000037
:105673000000000000000000000000000000000027
:105683000000000000000000000000000000000017
:105693000000000000000000000000003C000000CB
:1056A3003E003C003E003C003F001E003F801E00C9
:1056B3003BC01E0039E00E0039F00E0038F81E0022
:1056C300387C1E00383F3E00381FFC00380FFC00BA
:1056D3003803F80000000000000000000000000094
:1056E30000000000000000000000000000000000B7
:1056F30000000000000000000000000000000000A7
:105703000000000000000000000000000000000096
:105713000000000000000000000000000000000086
:105723001E0000003E001C003C1C1E003C1C1E0012
:10573300381C0E00381C0E00383E0E003C3E1E0086
:105743003C3F3E003E7FFE001FF3FC000FF1F800DC
:1057530007E000000000000000000000000000005F
:105763000000000000000000000000000000000036
:105773000000000000000000000000000000000026
:105783000000000000000000000000000000000016
:10579300000000000000000001E0000001F0000034
:1057A30001FC000001FE000001DF000001C7C00092
:1057B30001C3E00001C1F80001C07C0001C03E004C
:1057C3003FFFFE003FFFFE003FFFFE0001C0000061
:1057D30001C0000001C00000000000000000000044
:1057E30000000000000000000000000000000000B6
:1057F30000000000000000000000000000000000A6
:105803000000000000000000000000000000000095
:105813000000000000000000000000000000000085
:105823003C0000003C1FFE003C0FFE00380FFE0052
:10583300380E0E00380E0E003C1E0E003C1E0E00ED
:105843003C1E0E001F7E0E001FFC0E000FF80E0004
:1058530007F000000000000000000000000000004E
:105863000000000000000000000000000000000035
:105873000000000000000000000000000000000025
:105883000000000000000000000000000000000015
:105893000000000000000000000000000000000005
:1058A30003FF80000FFFE0001FFFF0003F3FF80001
:1058B3003C1C7C003C1E3E00380E1E00380E1E00B1
:1058C3003C1E0E003C1E0E003F7E0E001FFC1E0001
:1058D3000FFC1E0007F000000000000000000000A5
:1058E30000000000000000000000000000000000B5
:1058F30000000000000000000000000000000000A5
:105903000000000000000000000000000000000094
:1059130000000000000000000000000000000E0076
:1059230000000E0000000E0038000E003E000E00C6
:105933003F800E001FE00E0007F80E0001FE0E0070
:10594300007FCE00001FFE000007FE000001FE00E6
:1059530000003E0000000E000000000000000000F8
:105963000000000000000000000000000000000034
:105973000000000000000000000000000000000024
:105983000000000000000000000000000000000014
:105993000000000000000000000000000FC0000035
:1059A3001FE1F8001FF3FC003EF7FC003CFF3E0044
:1059B3003C7E1E00387C1E0038380E00387C0E00FA
:1059C3003C7E1E003C7F3E003EF7FE001FF3FC00C2
:1059D3001FE1F8000FC000000000000000000000FD
:1059E30000000000000000000000000000000000B4
:1059F30000000000000000000000000000000000A4
:105A03000000000000000000000000000000000093
:105A13000000000000000000000000000007F0008C
:105A23003C0FF8003C1FFC003C3F7E00383C1E004E
:105A3300383C1E003C380E003C380E003E3C1E0035
:105A43001F3C1E001FDE7E000FFFFC0003FFF8005B
:105A530000FFE00000000000000000000000000064
:105A63000000000000000000000000000000000033
:105A73000000000000000000000000000000000023
:105A83000000000000000000000000000000000013
:105A9300000000000000000000000E0000003E00B7
:105AA3000001FE000007FC00001FF00000FF800063
:105AB30003FE00000FF800007FC00000FF0000009D
:105AC300FC000000E0000000800000000000000077
:105AD30000000000000000000000000000000000C3
:105AE30000000000000000000000000000000000B3
:105AF30000000000000000000000000000000000A3
:045B0300000000009E
:106485000142FEC12BC12AC131C120013300C12502
:10649500C122C12CC1A6C130C12FC124C12DC12823
:1064A5000330010000C12EC121C123C133012D00DC
:1064B50002270118024A0000012B00013E00012CB1
:0F64C500FF02400000023A0064043400000000AF
:106A2300D29475A0EF7F147E00126B6875C790D265
:106A3300B1D2B0D296C297126B64D2977F147E0004
:066A4300126B68C29422F0
:106ABA00D29475A0FFD295C29575C792D2B1D2B0C1
:106ACA00D296C297126B64D2977F147E00126B68BB
:036ADA00C2942241
:0469AE007DFF7F01E9
:1069B2008D13BF010575430A800EBF030575430998
:1069C2008006BF02037543087F327E00126B688522
:0369D20013FC2291
:106C2200D29475A0EF8FC7C295C2B1D2B0D296C22C
:066C320097D297C29422E4
:106C3800D29475A0EF8FC7C295D2B1C2B0D296C216
:066C480097D297C29422CE
:076B7F00E53D4410FFF53D68
:106B8600D29475A0FF8FC7C295D296D2B1C2B0C2B9
:066B960097D297C2942281
:106C4E00D29475A0FF8FC7C295D296D2B1C2B0C2F0
:066C5E0097D297C29422B8
:1065F2007F707E17126B68D29475A0EF75C77FC249
:1066020095C2B1D2B0D296C297D297C2947F987EE9
:106612003A126B68D29475A0EF75C7FFC295C2B1EA
:10662200D2B0D296C297D297C2947F407E1F026B9D
:0166320068FF
:041BE600AD07AC0695
:101BEA0085E61285E713C2AFE4F5E6F5E7126B7FE7
:101BFA0090E778E0FF75F007A42442F582E4340008
:101C0A00F583E0FAA3E0D39DEA9C5018EF75F0073C
:101C1A00A42444F582E43400F583E0FEA3E0D39DD6
:101C2A00EE9C501575110130F9FDC2FFE4F5A305CC
:101C3A0011E511B438F1021CCD75110130F9FDC25C
:101C4A00FFE511D394004006E51194374005E4F509
:101C5A00A38065E52B70047F0180027F0075F0B8D0
:101C6A00EFA42402F582E5F03408F583EF75F06FEE
:101C7A00A42583F583C083C08290E778E075F007D6
:101C8A00A42442F582E43400F583E0FEA3E0FFC316
:101C9A00ED9FFFEC9EFED082D08375F037EF120BDA
:101CAA0067EE75F037A42583F583E5822511F58261
:101CBA00E43583F583E0F5A30511E5116438600383
:101CCA00021C467FC8AE071FEE70FA1264D5D2AF67
:091CDA008512E68513E702683368
:0410B200C234C2354D
:1010B6007F647E00126B683022030211C890003FE5
:1010C6007480F090E7727402F0C23290080074F0F7
:1010D600F0A3E4F0F50FF51090E778E075F007A4BB
:1010E6002446F582E43400F583E0FEA3E0D39510B0
:1010F600EE950F50030211C8303553AF10AE0F12E4
:101106001BE690E778E075F007A42442F582E43404
:1011160000F583E0FEA3E0B5100CEEB50F08D2375C
:10112600126CBA433D0890E778E075F007A42444B2
:10113600F582E43400F583E0FEA3E065107003EE6B
:10114600650F7070533DF7C237126CBA80667546EC
:10115600097F207E03EF1FAC0670011E4C70F675EA
:1011660046087E037F20EF1FAC0670011E4C70F60A
:101176007546097E037F20EF1FAC0670011E4C707A
:10118600F67546087E037F20EF1FAC0670011E4CE5
:1011960070F67546097E037F20EF1FAC0670011EB0
:1011A6004C70F67546087E037F20EF1FAC06700173
:1011B6001E4C70F60510E51060030210DE050F02E6
:1011C60010DE126B641267FD20320C3035097F3455
:1011D6007E00126BBD80F1900025E004F0120086BF
:1011E60030343290080074F0F0A3E4F02029097F2F
:1011F600347E00126BBD80F49000217402F01265FB
:10120600F290E7727409F0900021F0C22990E7721B
:0A121600E0640960F8E490E772F06C
:0112200022AB
:1064D5007FEF126C227F0AAE071FEE70FA7FFF1264
:1064E5006C227F3CAE071FEE70FAE53D54EFFFF5D9
:1064F5003D126B867FFC126C22126B647FFF126C5F
:10650500227F32AE071FEE70FA126B7F7FF3126C9B
:0965150022126B647FFF026C226C
:106833007546087F207E03EF1FAC0670011E4C7067
:10684300F67546097E037F20EF1FAC0670011E4CD0
:1068530070F67546087E037F20EF1FAC0670011E9D
:036863004C70F680
:01686600220F
:106C6400D29475A0FF43C77FD297C296C2B1C2B077
:066C740085C721C2942235
:106C7A00D29475A0FF43C7FCD297C296C2B1D2B0D4
:066C8A0085C722C294221E
:106C9000D29475A0EF43C70FD297C296C2B1C2B0CB
:066CA00085C720C294220A
:106B4200E4F5A475A51075A6FF75A7FF75D40175A8
:0F6B5200D5C075F2FF75E10675E24353F1EF22EE
:076D260075E70275A8802249
:03002B0002689BCD
:10689B00C0E0C0D075D000C007C2CFAF330533EF17
:1068AB00C394034016C2CA75CD0075CC0075330076
:1068BB0075300175310075321FD22BD007D0D0D077
:0268CB00E032B9
:076D2D0043B20375EF0422DD
:0A6D0800E4F5C8F5CCF5CDD2AD22BC
:0A6D12007584FF758517E4F5AA22C9
:10663300E4FFFEE4FDFC9077BA75F037EF120B67C9
:10664300EE75F037A42583F583E5822DF582E58386
:106653003CF583E4F00DBD00010CED64374C70D6BE
:0B6663000FBF00010EBE02CBBF08C835
:01666E002209
:106A950030050B300505126A4980F8D22F223006E1
:106AA5000B300605126A6F80F8D22F2230070512C7
:056AB5006867D22F22EA
:100BC800E4F509F50A750B04750C4C53D9BF126787
:100BD800C5902003E493FE740193FF902005E493ED
:100BE800FC740193FD90005E74FFF0A37420F0A3E1
:100BF8007421F0A374FFF0A37420F0A37431F09073
:100C0800203BE493900064F090203CE493900065CE
:100C1800F090203DE493FB740193900066CBF0A321
:100C2800EBF07BFF7A20790712177A126C09C2AFB2
:100C3800126CDC75E408126D1C126B42126CCC75D8
:100C4800C188E4F5C075B610126BD4126ABA126A7C
:100C580023126D12126BEF126D0812002E7538FFF9
:100C6800AF38126C22D22FE4900020F090001FF0D1
:100C7800900022F0A3F0A37432F0E4A3F0900041B6
:100C8800F090002104F0900026E4F0A37412F0A381
:100C98007401F0A3742CF0A3740BF0A374B8F0A340
:100CA8007401F0A3745EF0A37401F0A3747EF0A342
:100CB8007401F0A374AEF0A37401F0A374BAF0A3A6
:100CC8007401F0A374EAF0A37401F0A374F6F0E4DD
:100CD800A3F0A3F0A374A0F0A3E4F0A374A0F0A37E
:100CE8007402F0A3F0A374A0F0E4A3F0A3F09000C2
:100CF8000074EBF0900042E4F0A37414F0A37402C3
:100D0800F0A3741CF0A37402F0A37440F0A374035E
:100D1800F0A3E4F0A3743CF0A37402F0A37444F0CD
:100D2800A37402F0A37480F0A37403F0A3E4F0A307
:100D380074B4F0A37402F0A374BCF0A37403F0A31A
:100D48007455F0A37402F0E490E772F0D2AF126920
:0A0D58005912663390003F7470F0EA
:100D6200120003E4900021F0126CEC8F0D90002130
:100D72007407F0E50DB40312125EC07FC87E001244
:100D82006B68E490001FF0020E75E50D64076003C6
:100D9200020E2C750B03750CE875460B7F0AFE12CA
:100DA2006B68126B61E4F509F50A754609AF0CAE82
:100DB2000BEF1FAC0670011E4C70F6754608AE0BA9
:100DC200AF0CEF1FAC0670011E4C70F6754609AEF3
:100DD2000BAF0CEF1FAC0670011E4C70F675460887
:100DE200AE0BAF0CEF1FAC0670011E4C70F67546D1
:100DF20009AE0BAF0CEF1FAC0670011E4C70F675FE
:100E02004608AE0BAF0CEF1FAC0670011E4C70F61D
:100E1200050AE50A7002050964807004E5096402A6
:100E2200708875460E1267FD8049E50D640A7034BC
:100E32007546127F0AFE126B689008007450F0A388
:100E4200E4F0126BB97F0812692C2009F57FF47E59
:100E520001126B68126BB97F0812692C3009F575A3
:100E620046138008E50DB4020A12666F7F647E00A5
:0A0E7200126B687FE87E03126B68C4
:030E7C00020D6202
:1067FD00754612126B649008007450F0A3E4F01209
:10680D006BB97F0812692C2009F57FF47E01126B9C
:10681D0068126BB97F0812692C3009F57546137F24
:06682D00647E00026B68AE
:10666F009000217402F0202205121636C2207FD02E
:10667F007E07126B68E4900021F0A3F09000407445
:10668F0007F07FA07E0F126B681266339000407484
:0B669F000AF090003F7470F00200034E
:1063880090003EE0F50EE50ED394044003750E022E
:106398007543057F327E00126B68AF0E150EEF60F5
:1063A8002A9008007480F0A3E4F0126BB97F0712FA
:1063B800692C200AF59008007480F0A3E4F0126BB1
:1063C800B97F0712692C300AF580CF7543047F2006
:0563D8007E03026B686A
:1016360090E778E075F007A42448F582E43400F5D5
:1016460083E0FF90E775E02FF50EE4900022F0901E
:10165600E7727402F0C23290080074F0F0A3E4F06E
:101666002032097F347E00126BBD80F475460B1262
:101676006B64126B6112000ED220E4900025F0908C
:10168600E7727409F0900021F0C2291267FD90E715
:1016960079E024FF921A785576017855E6FFD395BE
:1016A6000E4003021761EFB50E1524FE900022F0DE
:1016B600E4900025F01210B220220302175B22905C
:1016C600E778E075F007A42448F582E43400F58352
:1016D600E0FFC3E50E9FFF7855E6FED39F4017EE69
:1016E60024FE900022F0E4900025F0D234C2351298
:1016F60010B63022602290E778E075F007A42448FF
:10170600F582E43400F583E0FF7855E6D39F501068
:10171600E4900022F0C234D2351210B630223622BE
:1017260090E778E075F007A42448F582E43400F5E4
:1017360083E0FF7855E6FED39F401AE50E9FFFEE45
:10174600D39F5011EE24FE900022F0D234D23512EF
:1017560010B620221E7855060216A01265F2121047
:10176600B21210B21210B29000407405F075460E17
:03177600126B648F
:01177900224D
:106984008F0F785576017855E6FFD3950F501A90FE
:106994000022EFF0121FFA20220F7FF47E01126B07
:0A69A400681267FD78550680DD22B9
:101AE6009000217402F0C22230130E7404F07F09B4
:101AF600125C9D9000407426F030271190002174EE
:101B060004F07F0D125C9D9000407408F03025189B
:101B1600303615D22D9000217404F07F0B125C9D97
:101B26009000407427F08008202D057F0C125C9DE4
:101B3600201309202706202D03021BE5900021749F
:101B460004F07F02125C9D75460E126B64754606A4
:101B560012008630360BC237126CBA7F0A7E0080BE
:101B6600749000217404F07F02125C9D126CECEFFD
:101B760064067038201335120003900040740AF092
:101B8600126867126755053C053C78551675460F71
:101B9600303605D237126CBA12000EC22DC2229010
:101BA60000217402F07F0E125C9D802E126CECBF39
:101BB600051C120003E4900021F07F0F125C9D12B9
:101BC600000ED222900040740AF0C220800C126AE5
:101BD600957F307E75126B6880877F0A125C9D2226
:105EC0009000217402F07F10125C9D7F01125C9D96
:105ED000C236121AE6202254200C03126867900082
:105EE0003F7480F0900003E0FF6003B4020312638C
:105EF000DD900003E0FF64016004EFB4020312636D
:105F000088D220301805121DC480031260DCC22024
:105F1000C220900003E0FF6003B4021030220AE4C4
:105F2000900038F01268FD800312651E7FE87E0342
:105F3000126B68E4900021F0A3F07F08125C9D9042
:105F400000407407F07F407E1F126B681266337F3B
:105F500004125C9D900040740AF090003F7470F051
:035F600002000339
:1060DC0075460D126B6475460B126B64126B61D2B4
:1060EC0020126755750E01900023E0FFE50ED39F3B
:1060FC00501A900022E50E121CE8E50EB40104D2F1
:10610C00308002C230202239050E80DB7F14125CF5
:10611C009D30191F7F011269847F887E13126B6872
:10612C00C2347F031266E47F887E13126B68126898
:10613C00678008900004E0FF12698475460E126BAC
:01614C0064EE
:01614D00222F
:0266E4008F0F16
:1066E600A2349236121AE6126B61202229E4F510C2
:1066F600F51112614E0511E51170020510C394687B
:10670600E510940140EC7F987E3A126B681265F2B0
:0667160075460612008624
:01671C00225A
:101CE30024FE900022F0900003E0FFC234A2309261
:011CF30035BB
:021CF4008F0F50
:101CF600A2349236121AE6302203021DC375FC6026
:101D0600E4F510F5113034447855E624FFFDE4344B
:101D1600FFFCAF11AE1012008EE51164687004E589
:101D2600106401705330355030194DC237126CBAF9
:101D36007F987E3A126B68C2AF1265F2D2AF7F10FF
:101D46007E27126B68D237126CBA802C7FF87E021F
:101D5600126152E511B46820E510B4011B30351844
:101D66003019157F987E3A126B68C2AF1265F2D2AF
:101D7600AF7F107E27126B68E50FB4010EE511B533
:101D86002821E510B5271CD2318018E50FB40213BF
:101D9600E511B52807E510B52702D231AF11AE100F
:101DA6001264320511E51170020510C39480E51026
:0D1DB60094025003021D0B533DF7120086EE
:011DC30022FD
:10643200301A4F90002CE06E7003A3E06F6018904A
:106442000030E06E7003A3E06F600C900034E0B5A2
:106452000609A3E0B50704433D082290002EE06E32
:106462007003A3E06F6018900032E06E7003A3E047
:106472006F600C900036E0B50608A3E0B507035341
:036482003DF722C1
:0C000E00A2039233E4F54AF54BC2252210
:101DC400900023E02402F50E12001AD237126CBAE6
:101DD40075460B126B64126B6112000ED2201267EF
:101DE40055785576017855E6FFD3950E507CEFB4BF
:101DF4000404D2308002C230E50E147855667012A5
:101E0400C237126CBA126B647855E6121CE33022A6
:101E140053227855E6FFC3950E4008EF121CE330B9
:101E24002242227855E6D394025014E4900022F022
:101E3400D234A23092357F03121CF4302226227849
:101E440055E6FFD39402401CE50E14FEEF9E501499
:101E5400E624FE900022F0900003E0FFD234121C2E
:101E6400F0202236785506021DE930191F7F011231
:101E740069847F887E13126B68C2347F031266E420
:101E84007F887E13126B681268678008900004E0F4
:0A1E9400FF12698475460E126B649C
:011E9E002221
:08008E008E128F138C148D15E6
:10009600E4FBFA75460985E61785E718D390004311
:1000A600E09513900042E09512500E900045E095C1
:1000B60013900044E09512501575160130F9FDC2F3
:0E00C600FFE4F5A30516E516B451F102072D6F
:1000D400E4F51630F9FDC2FFE4F5A30516E516B400
:1000E40015F1202C030203EAE4F51630F9FDC2FFF2
:1000F400C3E5139BE5129A4038EB2420FFE43AFE53
:09010400C3E5139FE5129E50288B
:10010D00751B02C3E5139BFFE5129AFEEF7802C340
:10011D0033CE33CED8F9FF75F080E51BA42487F5D7
:05012D0082E5F03455ED
:1001320002028EEB2420FFE43AFEC3E5139FE51290
:100142009E4038EB2440FFE43AFEC3E5139FE512DC
:030152009E502894
:10015500E4F51BC3E5139BFFE5129AFEEF7802C396
:1001650033CE33CED8F9FF75F080E51BA42407F50F
:0501750082E5F03455A5
:10017A0002028EEB2440FFE43AFEC3E5139FE51228
:10018A009E4038EB2460FFE43AFEC3E5139FE51274
:03019A009E50284C
:10019D00751B01C3E5139BFFE5129AFEEF7802C3B1
:1001AD0033CE33CED8F9FF75F080E51BA42487F547
:0501BD0082E5F034545E
:1001C20002028EEB2460FFE43AFEC3E5139FE512C0
:1001D2009E4038EB2480FFE43AFEC3E5139FE5120C
:0301E2009E502804
:1001E500751B01C3E5139BFFE5129AFEEF7802C369
:1001F50033CE33CED8F9FF75F080E51BA42407F57F
:0502050082E5F0345415
:10020A0002028EEB2480FFE43AFEC3E5139FE51257
:10021A009E402CEB24A0FFE43AFEC3E5139FE512AF
:10022A009E501CC3E5139BFFE5129AFEEF7802C3AA
:10023A0033CE33CED8F92487F58274580203C8EB3B
:10024A0024A0FFE43AFEC3E5139FE5129E4041EB6A
:0F025A0024C0FFE43AFEC3E5139FE5129E503126
:10026900E4F51BC3E5139BFFE5129AFEEF7802C381
:1002790033CE33CED8F9FF75F080E51BA42407F5FA
:0E02890082E5F03453F583E5822FF582E5839C
:100297000203C8EB24C0FFE43AFEC3E5139FE5124F
:1002A7009E4041EB24E0FFE43AFEC3E5139FE512CD
:0302B7009E503125
:1002BA00751B03C3E5139BFFE5129AFEEF7802C391
:1002CA0033CE33CED8F9FF75F080E51BA42487F529
:0E02DA0082E5F03452F583E5822FF582E5834C
:1002E8000203C8EB24E0FFE43AFEC3E5139FE512DE
:1002F8009E402CE42BFFEA3401FEC3E5139FE51270
:100308009E501CC3E5139BFFE5129AFEEF7802C3CB
:1003180033CE33CED8F92407F58274570203C8E4E4
:100328002BFFEA3401FEC3E5139FE5129E4041EB23
:100338002420FFEA3401FEC3E5139FE5129E5030E6
:10034800E4F51BC3E5139BFFE5129AFEEF7802C3A1
:1003580033CE33CED8F9FF75F080E51BA42487F59A
:0E03680082E5F03451F583E5822FF582E583BE
:100376008050EB2420FFEA3401FEC3E5139FE5120B
:100386009E4053EB2440FFEA3401FEC3E5139FE58C
:04039600129E504221
:10039A00751B09C3E5139BFFE5129AFEEF7802C3AA
:1003AA0033CE33CED8F9FF75F080E51BA42407F5C8
:1003BA0082E5F03451F583E5822FF582E5833EF537
:1003CA0083E5822516F582E43583F583E493F5A364
:1003DA008003E4F5A30516E516640460030200EF42
:1003EA002026030205AAE4F51630F9FDC2FFC3E58B
:1003FA00139BE5129A4047EB2420FFE43AFEC3E53B
:07040A00139FE5129E50371D
:10041100E5152401FFE43514FE7C007D0A1209E292
:100421008F1BC3E5139BFFE5129AFEEF7802C333DE
:10043100CE33CED8F9FF75F080E51BA42487F58271
:04044100E5F0345559
:10044500020527EB2420FFE43AFEC3E5139FE512DE
:100455009E4047EB2440FFE43AFEC3E5139FE512B7
:030465009E50376F
:10046800E5152401FFE43514FE7C007D0A1209E23B
:100478008D1BC3E5139BFFE5129AFEEF7802C33389
:10048800CE33CED8F9FF75F080E51BA42407F5829A
:04049800E5F0345502
:10049C00020527EB2440FFE43AFEC3E5139FE51267
:1004AC009E402CEB2460FFE43AFEC3E5139FE5125B
:1004BC009E501CC3E5139BFFE5129AFEEF7802C316
:1004CC0033CE33CED8F92487F5827459020588EBE4
:1004DC002460FFE43AFEC3E5139FE5129E4047EB10
:0F04EC002480FFE43AFEC3E5139FE5129E5037CC
:1004FB00900005E075F00A84F51BC3E5139BFFE53F
:10050B00129AFEEF7802C333CE33CED8F9FF75F0D3
:10051B0080E51BA42407F582E5F03454F583E582CE
:05052B002FF582E583BD
:100530008056EB2480FFE43AFEC3E5139FE5129E4C
:10054000405AEB24A0FFE43AFEC3E5139FE5129E58
:02055000504A0F
:10055200900005E075F00A8485F01BC3E5139BFF4C
:10056200E5129AFEEF7802C333CE33CED8F9FF7587
:10057200F080E51BA42487F582E5F03453F583E58A
:10058200822FF582E5833EF583E5822516F582E426
:080592003583F583E493F5A322
:10059A008003E4F5A30516E516640460030203F379
:1005AA00E4F51630F9FDC2FFE4F5A30516E516B425
:1005BA0009F1E4F51AF51674082516F582E43400F3
:1005CA00F583E06002051A0516E516B404E9E51A92
:1005DA00FD7C00AE14AF151209E2ED75F008A4F522
:1005EA0019E4F51630F9FDC2FF90080275F0B8E576
:1005FA0013120B67E51275F0B8A42583F8E5137595
:10060A00F06FA428F583E5192516FFE433FE75F08B
:10061A0037EF120B678582A30516E516B408C5E401
:10062A00F51630F9FDC2FFE4F5A30516E516B40484
:10063A00F1E4F51630F9FDC2FF301D2A900FBE75A0
:10064A00F0B8E513120B67E51275F0B8A42583F824
:10065A00E51375F06FA428F58375F037E516120BCC
:10066A00678582A38003E4F5A30516E516B404C4DE
:10067A00E4F51630F9FDC2FF301C2A900EE275F03F
:10068A00B8E513120B67E51275F0B8A42583F8E5EF
:10069A001375F06FA428F58375F037E516120B670A
:1006AA008582A38003E4F5A30516E516B404C4E421
:1006BA00F51630F9FDC2FFE4F5A30516E516B407F1
:1006CA00F1E4F51630F9FDC2FF301B3BD3E5139474
:1006DA008AE51294004030E513944AE512940150D9
:1006EA0026901C7975F007E513120B67E51275F071
:1006FA0007A42583F583E5822516F582E43583F57B
:10070A0083E493F5A38003E4F5A30516E516B4077D
:10071A00B3E4F51630F9FDC2FFE4F5A30516E516B4
:03072A00B409F11E
:06072D001264D5026833DE
:031FFA0002686713
:040086007538FF22A8
:10622100E53F24F8600F24F8601224F0600A241C72
:10623100704B021386020000753F0822C3E54895A2
:106241002FFFE547952EFED3EF9400EE9410400604
:106251007E107F0080008E4C8F4DAB50AA51A95209
:10626100AD4DAC4C1219D5EF252FF52FEE352EF58E
:0E6271002EE54D2552F552E54C3551F55122E2
:03008B00021F6CE5
:101F6C00C0E0C0F0C083C082C0D075D000C000C03B
:0D1F7C0001C002C003C004C005C006C007BC
:101F8900126CFAEF30E003753F01EF30E403753F5F
:101F990002EF30E11FE53FB40803753F20E53FB488
:101FA9001012E52FB54809E52EB547047E028002D7
:101FB9007E108E3FEF30E20DE53FB402047E0480CF
:101FC900027E088E3FEF30E503753F01EF30E303F2
:061FD900753F02126221B7
:101FDF00D007D006D005D004D003D002D001D00056
:0B1FEF00D0D0D082D083D0F0D0E03200
:10138600E4F508FB7A0079597D38125E117529005B
:101396008F2A7859E6600302142808E6900020F0A8
:1013A60008E690E773F008E6A3F008E6A3F008E67F
:1013B600A3F008E6A3F008E6A3F008E6A3F008E623
:1013C600A3F008E6A3F008E6A3F008E6A3F008E613
:1013D600A3F008E624FF92297859A62C90E772E03C
:1013E60008F6900021E008F6A3E008F6A3E008F668
:1013F600A3E008F6A3E008F6900040E008F6A3E0B4
:1014060008F608A63E0876FF7B007A0079597D0F1C
:101416007C001219D58E2E8F2F753F02053E752C36
:10142600FF227859E6640760030214C57508017443
:10143600592508F8E6FF75F0B8E52BA42401F582D6
:10144600E5F03408F583E52B75F06FA42583F58365
:1014560075F037E541120B67E54075F037A4258333
:10146600F583E508FD3395E0FCE5822DF582E583FD
:101476003CF583EFF00508E508B438B30541E541CE
:1014860070020540C39408E54094024019E490E7D1
:1014960072F0D232F540F541E52B7005752B0180CF
:1014A6000BE4F52B800690E7727402F090E772E089
:1014B600785AF67B007A0079597D0F7C0080157882
:1014C60059E6B40119E490E772F008F6FB7A007960
:0E14D600597D0FFC1219D58E2E8F2F753F02F7
:0114E40022E5
:10671D009000217406F07D407F031269B29008004D
:10672D0074F0F0A3E4F030140D126BB9126BB97F55
:10673D000412692C80F01269AE7FE87E03126B683B
:08674D00854249A209922122B4
:1068CD009000217406F07D407F021269B29008009D
:1068DD0074F0F0A3E4F030150D126BB9126BB97FA3
:1068ED000412692C80F01269AE7FE87E03026B689A
:1000560075EC4075430C7F147E00126B68900800A7
:1000660074F0F0A3E4F030170A126BB97F05126939
:0D0076002C80F375430E7F207E03026B6823
:1061B9007D407F031269B23009052014FA8020203E
:1061C90009052014FA80181269AE7D407F0312690F
:1061D900B23009052014FA80062009082014FA12A1
:1061E90069AE802C1269AE7FE87E03126B687D4030
:1061F9007F021269B22009FD3009FD1269AE7D40A6
:106209007F021269B22009FD3009FD1269AEC22F61
:086219007FE87E03126B68228E
:1068FD00E4F50E900023F09000217406F07F07124E
:10690D005C9D9000407401F0200C031268671267C3
:0F691D001DA209E4337891F6E47854F60218B11C
:106CBA00A237922875EAA030370475430122E4F519
:026CCA00432263
:106A490075460B126B64126B61E4F512F513126152
:106A59004E0513E51370020512C39450E512940014
:056A690040EC75460E33
:016A6E002205
:106A6F0075460A126B64126B61E4F512F51312612D
:106A7F004E0513E51370020512C39450E5129400EE
:056A8F0040EC75460E0D
:016A940022DF
:1068670075460B126B64126B61E4F51290E778E0E2
:1068770075F007A42446F582E43400F583E0FEA30F
:10688700E0D39512EE9400400712614E051280DCAA
:0368970075460E35
:01689A0022DB
:076B610075460F7F0A7E005C
:0A6B6800EF1FAC0670011E4C600C1C
:0C6B7200751C64AD1C151CED60EC80F778
:016B7E0022F4
:046BB9007F647E0077
:0A6BBD00EF1FAC0670011E4C600CC7
:0C6BC700751164AD111511ED60EC80F744
:016BD300229F
:106BD40075D840E4F5D975DA4275DB4275DC427547
:0B6BE400FC6075EA4075EC40D2DE2238
:106CCC0075B283E4F5A975B31043A90343EF02220F
:04614E007F207E032D
:10615200754609AD07AC06ED1DAA0470011C4A7014
:10616200F6754608AC06AD07ED1DAA0470011C4A7F
:1061720070F6754609AC06AD07ED1DAA0470011C48
:106182004A70F6754608AC06AD07ED1DAA0470010B
:106192001C4A70F6754609AC06AD07ED1DAA0470DF
:1061A200011C4A70F6754608AC06AD07ED1DAE043B
:0661B20070011C4E70F6A6
:0161B80022C4
:0A6D1C0075A14075F80175A2072269
:106BEF00758C30858C8A758D30858D8B7589027586
:0A6BFF008E22D2A9D2AB7588502275
:03001B000265AECD
:1065AE00C0E0C0D075D000C006C28E052D3028299F
:1065BE00A203303301B35006A20392338015054B6C
:1065CE00E54BAE4A7002054A14D394F4EE940140A2
:1065DE0008D225754A00754B00D2ECD28ED006D06B
:0465EE00D0D0E032F7
:03000B00021221BD
:10122100C0E0C0F0C083C082C0D075D000C000C093
:1012310007C28CD294E543B4100040030212C5905A
:101241001247F828287302127702127C02128102D7
:10125100128602128B02129002129502129A021247
:101261009F0212A40212A90212AE0212B30212B814
:101271000212BD0212C25339FE8049433901804432
:101281005339FD803F433902803A5339FB8035435E
:10129100390480305339F7802B433908802653397C
:1012A100EF8021433910801C5339DF8017433920E7
:1012B10080125339BF800D433940800853397F80F4
:1012C10003433980E54624FAB40E0050729012DCD3
:1012D10075F003A4C58325F0C5837302133D021382
:1012E1003802130602130B021315021310021340E6
:1012F10002134002131F02131A02132402132902BC
:10130100132E021333533DEF8035433D108030538C
:101311003DDF802B433D208026533DBF8021433D4F
:1013210040801C533DFB8017433D048012533DFD1B
:10133100800D433D038008433D088003533DF7AFD3
:101341002D052DEFD394FE4003752D0090003FE055
:10135100FFE52DC39F5005533DFB8003433D04AF83
:1013610039126C38AF3D126B86126C90126C64129C
:101371006C7AC294D28CD007D000D0D0D082D083E6
:05138100D0F0D0E032C5
:1018B1009000217406F07F07125C9D900040740136
:1018C100F020141C1269AE7FE87E03126B68785613
:1018D1007604D2237D407F021269B220141D80FB61
:1018E1002015181269AE7FE87E03126B6878567670
:1018F100017D407F031269B23015FD7856E6B401CF
:101901000B7D407F031269B2C22380B57856E6B4DD
:10191100040B7D407F021269B2D22380A47856E67F
:041921006402709D4F
:10192500F512F511751006F50F1269AE7F887E1355
:10193500126B68D2237DA07F021269B27856E664E5
:10194500036023780F74FF120B49E4FBFAF9F8C31F
:10195500120B3660032015E41269AE7F887E1312E0
:101965006B68A20992217856E6640360030218C2E7
:101975001269AE7F707E17126B68E549C31390003C
:1019850023F0A2099221A209B3402C9000417404CE
:10199500F02001149000217408F07F15125C9D7FE2
:1019A500207E03126B6880E97FE87E03126B68E492
:1019B500900041F01218B1900023E025E0F549E4CC
:1019C500900021F07F04125C9D900040740AF02283
:10002E0075D10B75BB1375BA1F75BCF843E608D2B4
:04003E00EFD2EC22EF
:03005300025BD479
:105BD400C0E0C0F0C083C082C0D075D000C000C097
:105BE40001C002C003C004C005C006C007C2EDAFB7
:105BF400BDE4FCFDFEE5372FF537EE3536F536ED21
:105C04003535F535EC3534F534E5BE54037F00FE07
:105C14003395E0FDFCEF2537F537E5363EF536E5FF
:105C2400353DF535E5343CF534E53B153B7002155F
:105C34003AE53B453A7047753A01753B2CAE3AAFAD
:105C44003BAB07AA06F9F8AF37AE36AD35AC341224
:105C54000A80E41208CB7BE17A7A79A878401208AA
:105C64002EE4FBFA79C8784112073A1209098E44E6
:105C74008F45753700753600753500753400D007CB
:105C8400D006D005D004D003D002D001D000D0D0AB
:095C9400D082D083D0F0D0E032C0
:10675500900003E0700C7F11125C9D900040740264
:10676500F022900003E0B4010C7F12125C9D9000B2
:10677500407403F022900003E0B4020B7F13125C17
:086785009D9000407404F02215
:10678D0090E773E0700C7F11125C9D9000407402D5
:10679D00F02290E773E0B4010C7F12125C9D900023
:1067AD00407403F02290E773E0B4020B7F13125C88
:0867BD009D9000407404F022DD
